{
  "contractName": "HogwartsNFT",
  "abi": [
    {
      "inputs": [],
      "stateMutability": "nonpayable",
      "type": "constructor"
    },
    {
      "anonymous": false,
      "inputs": [
        {
          "indexed": true,
          "internalType": "address",
          "name": "owner",
          "type": "address"
        },
        {
          "indexed": true,
          "internalType": "address",
          "name": "approved",
          "type": "address"
        },
        {
          "indexed": true,
          "internalType": "uint256",
          "name": "tokenId",
          "type": "uint256"
        }
      ],
      "name": "Approval",
      "type": "event"
    },
    {
      "anonymous": false,
      "inputs": [
        {
          "indexed": true,
          "internalType": "address",
          "name": "owner",
          "type": "address"
        },
        {
          "indexed": true,
          "internalType": "address",
          "name": "operator",
          "type": "address"
        },
        {
          "indexed": false,
          "internalType": "bool",
          "name": "approved",
          "type": "bool"
        }
      ],
      "name": "ApprovalForAll",
      "type": "event"
    },
    {
      "anonymous": false,
      "inputs": [
        {
          "indexed": false,
          "internalType": "uint256",
          "name": "_fromTokenId",
          "type": "uint256"
        },
        {
          "indexed": false,
          "internalType": "uint256",
          "name": "_toTokenId",
          "type": "uint256"
        }
      ],
      "name": "BatchMetadataUpdate",
      "type": "event"
    },
    {
      "anonymous": false,
      "inputs": [
        {
          "indexed": false,
          "internalType": "uint256",
          "name": "_tokenId",
          "type": "uint256"
        }
      ],
      "name": "MetadataUpdate",
      "type": "event"
    },
    {
      "anonymous": false,
      "inputs": [
        {
          "indexed": false,
          "internalType": "uint256",
          "name": "house",
          "type": "uint256"
        },
        {
          "indexed": false,
          "internalType": "address",
          "name": "minter",
          "type": "address"
        },
        {
          "indexed": false,
          "internalType": "string",
          "name": "name",
          "type": "string"
        }
      ],
      "name": "NftMinted",
      "type": "event"
    },
    {
      "anonymous": false,
      "inputs": [
        {
          "indexed": true,
          "internalType": "address",
          "name": "previousOwner",
          "type": "address"
        },
        {
          "indexed": true,
          "internalType": "address",
          "name": "newOwner",
          "type": "address"
        }
      ],
      "name": "OwnershipTransferred",
      "type": "event"
    },
    {
      "anonymous": false,
      "inputs": [
        {
          "indexed": true,
          "internalType": "address",
          "name": "from",
          "type": "address"
        },
        {
          "indexed": true,
          "internalType": "address",
          "name": "to",
          "type": "address"
        },
        {
          "indexed": true,
          "internalType": "uint256",
          "name": "tokenId",
          "type": "uint256"
        }
      ],
      "name": "Transfer",
      "type": "event"
    },
    {
      "inputs": [
        {
          "internalType": "address",
          "name": "to",
          "type": "address"
        },
        {
          "internalType": "uint256",
          "name": "tokenId",
          "type": "uint256"
        }
      ],
      "name": "approve",
      "outputs": [],
      "stateMutability": "nonpayable",
      "type": "function"
    },
    {
      "inputs": [
        {
          "internalType": "address",
          "name": "owner",
          "type": "address"
        }
      ],
      "name": "balanceOf",
      "outputs": [
        {
          "internalType": "uint256",
          "name": "",
          "type": "uint256"
        }
      ],
      "stateMutability": "view",
      "type": "function",
      "constant": true
    },
    {
      "inputs": [
        {
          "internalType": "uint256",
          "name": "tokenId",
          "type": "uint256"
        }
      ],
      "name": "getApproved",
      "outputs": [
        {
          "internalType": "address",
          "name": "",
          "type": "address"
        }
      ],
      "stateMutability": "view",
      "type": "function",
      "constant": true
    },
    {
      "inputs": [
        {
          "internalType": "address",
          "name": "",
          "type": "address"
        }
      ],
      "name": "hasMinted",
      "outputs": [
        {
          "internalType": "bool",
          "name": "",
          "type": "bool"
        }
      ],
      "stateMutability": "view",
      "type": "function",
      "constant": true
    },
    {
      "inputs": [
        {
          "internalType": "address",
          "name": "owner",
          "type": "address"
        },
        {
          "internalType": "address",
          "name": "operator",
          "type": "address"
        }
      ],
      "name": "isApprovedForAll",
      "outputs": [
        {
          "internalType": "bool",
          "name": "",
          "type": "bool"
        }
      ],
      "stateMutability": "view",
      "type": "function",
      "constant": true
    },
    {
      "inputs": [],
      "name": "name",
      "outputs": [
        {
          "internalType": "string",
          "name": "",
          "type": "string"
        }
      ],
      "stateMutability": "view",
      "type": "function",
      "constant": true
    },
    {
      "inputs": [],
      "name": "owner",
      "outputs": [
        {
          "internalType": "address",
          "name": "",
          "type": "address"
        }
      ],
      "stateMutability": "view",
      "type": "function",
      "constant": true
    },
    {
      "inputs": [
        {
          "internalType": "uint256",
          "name": "tokenId",
          "type": "uint256"
        }
      ],
      "name": "ownerOf",
      "outputs": [
        {
          "internalType": "address",
          "name": "",
          "type": "address"
        }
      ],
      "stateMutability": "view",
      "type": "function",
      "constant": true
    },
    {
      "inputs": [],
      "name": "renounceOwnership",
      "outputs": [],
      "stateMutability": "nonpayable",
      "type": "function"
    },
    {
      "inputs": [
        {
          "internalType": "address",
          "name": "",
          "type": "address"
        }
      ],
      "name": "s_addressToHouse",
      "outputs": [
        {
          "internalType": "uint256",
          "name": "",
          "type": "uint256"
        }
      ],
      "stateMutability": "view",
      "type": "function",
      "constant": true
    },
    {
      "inputs": [
        {
          "internalType": "address",
          "name": "",
          "type": "address"
        }
      ],
      "name": "s_addressToName",
      "outputs": [
        {
          "internalType": "string",
          "name": "",
          "type": "string"
        }
      ],
      "stateMutability": "view",
      "type": "function",
      "constant": true
    },
    {
      "inputs": [
        {
          "internalType": "uint256",
          "name": "",
          "type": "uint256"
        }
      ],
      "name": "s_requestIdToSender",
      "outputs": [
        {
          "internalType": "address",
          "name": "",
          "type": "address"
        }
      ],
      "stateMutability": "view",
      "type": "function",
      "constant": true
    },
    {
      "inputs": [
        {
          "internalType": "address",
          "name": "from",
          "type": "address"
        },
        {
          "internalType": "address",
          "name": "to",
          "type": "address"
        },
        {
          "internalType": "uint256",
          "name": "tokenId",
          "type": "uint256"
        }
      ],
      "name": "safeTransferFrom",
      "outputs": [],
      "stateMutability": "nonpayable",
      "type": "function"
    },
    {
      "inputs": [
        {
          "internalType": "address",
          "name": "from",
          "type": "address"
        },
        {
          "internalType": "address",
          "name": "to",
          "type": "address"
        },
        {
          "internalType": "uint256",
          "name": "tokenId",
          "type": "uint256"
        },
        {
          "internalType": "bytes",
          "name": "data",
          "type": "bytes"
        }
      ],
      "name": "safeTransferFrom",
      "outputs": [],
      "stateMutability": "nonpayable",
      "type": "function"
    },
    {
      "inputs": [
        {
          "internalType": "address",
          "name": "operator",
          "type": "address"
        },
        {
          "internalType": "bool",
          "name": "approved",
          "type": "bool"
        }
      ],
      "name": "setApprovalForAll",
      "outputs": [],
      "stateMutability": "nonpayable",
      "type": "function"
    },
    {
      "inputs": [
        {
          "internalType": "bytes4",
          "name": "interfaceId",
          "type": "bytes4"
        }
      ],
      "name": "supportsInterface",
      "outputs": [
        {
          "internalType": "bool",
          "name": "",
          "type": "bool"
        }
      ],
      "stateMutability": "view",
      "type": "function",
      "constant": true
    },
    {
      "inputs": [],
      "name": "symbol",
      "outputs": [
        {
          "internalType": "string",
          "name": "",
          "type": "string"
        }
      ],
      "stateMutability": "view",
      "type": "function",
      "constant": true
    },
    {
      "inputs": [
        {
          "internalType": "uint256",
          "name": "tokenId",
          "type": "uint256"
        }
      ],
      "name": "tokenURI",
      "outputs": [
        {
          "internalType": "string",
          "name": "",
          "type": "string"
        }
      ],
      "stateMutability": "view",
      "type": "function",
      "constant": true
    },
    {
      "inputs": [
        {
          "internalType": "address",
          "name": "from",
          "type": "address"
        },
        {
          "internalType": "address",
          "name": "to",
          "type": "address"
        },
        {
          "internalType": "uint256",
          "name": "tokenId",
          "type": "uint256"
        }
      ],
      "name": "transferFrom",
      "outputs": [],
      "stateMutability": "nonpayable",
      "type": "function"
    },
    {
      "inputs": [
        {
          "internalType": "address",
          "name": "newOwner",
          "type": "address"
        }
      ],
      "name": "transferOwnership",
      "outputs": [],
      "stateMutability": "nonpayable",
      "type": "function"
    },
    {
      "inputs": [
        {
          "internalType": "address",
          "name": "_user",
          "type": "address"
        }
      ],
      "name": "hasMintedNFT",
      "outputs": [
        {
          "internalType": "bool",
          "name": "",
          "type": "bool"
        }
      ],
      "stateMutability": "view",
      "type": "function",
      "constant": true
    },
    {
      "inputs": [
        {
          "internalType": "address",
          "name": "_user",
          "type": "address"
        }
      ],
      "name": "getHouseIndex",
      "outputs": [
        {
          "internalType": "uint256",
          "name": "",
          "type": "uint256"
        }
      ],
      "stateMutability": "view",
      "type": "function",
      "constant": true
    },
    {
      "inputs": [
        {
          "internalType": "address",
          "name": "recipient",
          "type": "address"
        },
        {
          "internalType": "uint256",
          "name": "house",
          "type": "uint256"
        },
        {
          "internalType": "string",
          "name": "name",
          "type": "string"
        }
      ],
      "name": "mintNFT",
      "outputs": [],
      "stateMutability": "nonpayable",
      "type": "function"
    }
  ],
  "bytecode": "0x6080604052604051806080016040528060405180608001604052806045815260200162003a00604591398152602001604051806080016040528060458152602001620039bb6045913981526020016040518060800160405280604481526020016200397760449139815260200160405180608001604052806044815260200162003a4560449139815250600d9060046200009b92919062000246565b50348015620000a957600080fd5b506040518060400160405280600c81526020017f486f677761727473204e465400000000000000000000000000000000000000008152506040518060400160405280600281526020017f485000000000000000000000000000000000000000000000000000000000000081525081600090805190602001906200012e929190620002ad565b50806001908051906020019062000147929190620002ad565b5050506200016a6200015e6200017860201b60201c565b6200018060201b60201c565b6000600c8190555062000430565b600033905090565b6000600760009054906101000a900473ffffffffffffffffffffffffffffffffffffffff16905081600760006101000a81548173ffffffffffffffffffffffffffffffffffffffff021916908373ffffffffffffffffffffffffffffffffffffffff1602179055508173ffffffffffffffffffffffffffffffffffffffff168173ffffffffffffffffffffffffffffffffffffffff167f8be0079c531659141344cd1fd0a4f28419497f9722a3daafe3b4186f6b6457e060405160405180910390a35050565b8280548282559060005260206000209081019282156200029a579160200282015b828111156200029957825182908051906020019062000288929190620002ad565b509160200191906001019062000267565b5b509050620002a991906200033e565b5090565b828054620002bb90620003fa565b90600052602060002090601f016020900481019282620002df57600085556200032b565b82601f10620002fa57805160ff19168380011785556200032b565b828001600101855582156200032b579182015b828111156200032a5782518255916020019190600101906200030d565b5b5090506200033a919062000366565b5090565b5b8082111562000362576000818162000358919062000385565b506001016200033f565b5090565b5b808211156200038157600081600090555060010162000367565b5090565b5080546200039390620003fa565b6000825580601f10620003a75750620003c8565b601f016020900490600052602060002090810190620003c7919062000366565b5b50565b7f4e487b7100000000000000000000000000000000000000000000000000000000600052602260045260246000fd5b600060028204905060018216806200041357607f821691505b602082108114156200042a5762000429620003cb565b5b50919050565b61353780620004406000396000f3fe608060405234801561001057600080fd5b506004361061014d5760003560e01c806370a08231116100c3578063b88d4fde1161007c578063b88d4fde146103c2578063c87b56dd146103de578063cd6542321461040e578063e28cb25a1461043e578063e985e9c51461046e578063f2fde38b1461049e5761014d565b806370a0823114610300578063715018a6146103305780638da5cb5b1461033a57806395d89b4114610358578063a22cb46514610376578063a36f573b146103925761014d565b806323b872dd1161011557806323b872dd1461020857806333975f941461022457806338e21cce1461025457806342842e0e146102845780634a4b36c2146102a05780636352211e146102d05761014d565b806301ffc9a71461015257806306fdde0314610182578063081812fc146101a0578063095ea7b3146101d05780631e576912146101ec575b600080fd5b61016c60048036038101906101679190612373565b6104ba565b60405161017991906123bb565b60405180910390f35b61018a61051b565b604051610197919061246f565b60405180910390f35b6101ba60048036038101906101b591906124c7565b6105ad565b6040516101c79190612535565b60405180910390f35b6101ea60048036038101906101e5919061257c565b6105f3565b005b610206600480360381019061020191906126f1565b61070b565b005b610222600480360381019061021d9190612760565b6109ac565b005b61023e600480360381019061023991906127b3565b610a0c565b60405161024b919061246f565b60405180910390f35b61026e600480360381019061026991906127b3565b610aac565b60405161027b91906123bb565b60405180910390f35b61029e60048036038101906102999190612760565b610acc565b005b6102ba60048036038101906102b591906127b3565b610aec565b6040516102c791906127ef565b60405180910390f35b6102ea60048036038101906102e591906124c7565b610b35565b6040516102f79190612535565b60405180910390f35b61031a600480360381019061031591906127b3565b610bbc565b60405161032791906127ef565b60405180910390f35b610338610c74565b005b610342610c88565b60405161034f9190612535565b60405180910390f35b610360610cb2565b60405161036d919061246f565b60405180910390f35b610390600480360381019061038b9190612836565b610d44565b005b6103ac60048036038101906103a791906124c7565b610d5a565b6040516103b99190612535565b60405180910390f35b6103dc60048036038101906103d79190612917565b610d8d565b005b6103f860048036038101906103f391906124c7565b610def565b604051610405919061246f565b60405180910390f35b610428600480360381019061042391906127b3565b610f02565b60405161043591906127ef565b60405180910390f35b610458600480360381019061045391906127b3565b610f1a565b60405161046591906123bb565b60405180910390f35b6104886004803603810190610483919061299a565b610f70565b60405161049591906123bb565b60405180910390f35b6104b860048036038101906104b391906127b3565b611004565b005b6000634906490660e01b7bffffffffffffffffffffffffffffffffffffffffffffffffffffffff1916827bffffffffffffffffffffffffffffffffffffffffffffffffffffffff19161480610514575061051382611088565b5b9050919050565b60606000805461052a90612a09565b80601f016020809104026020016040519081016040528092919081815260200182805461055690612a09565b80156105a35780601f10610578576101008083540402835291602001916105a3565b820191906000526020600020905b81548152906001019060200180831161058657829003601f168201915b5050505050905090565b60006105b88261116a565b6004600083815260200190815260200160002060009054906101000a900473ffffffffffffffffffffffffffffffffffffffff169050919050565b60006105fe82610b35565b90508073ffffffffffffffffffffffffffffffffffffffff168373ffffffffffffffffffffffffffffffffffffffff16141561066f576040517f08c379a000000000000000000000000000000000000000000000000000000000815260040161066690612aad565b60405180910390fd5b8073ffffffffffffffffffffffffffffffffffffffff1661068e6111b5565b73ffffffffffffffffffffffffffffffffffffffff1614806106bd57506106bc816106b76111b5565b610f70565b5b6106fc576040517f08c379a00000000000000000000000000000000000000000000000000000000081526004016106f390612b3f565b60405180910390fd5b61070683836111bd565b505050565b610713611276565b600a60008473ffffffffffffffffffffffffffffffffffffffff1673ffffffffffffffffffffffffffffffffffffffff16815260200190815260200160002060009054906101000a900460ff16156107a0576040517f08c379a000000000000000000000000000000000000000000000000000000000815260040161079790612bd1565b60405180910390fd5b6000600c5490506107b184826112f4565b61086181600d85815481106107c9576107c8612bf1565b5b9060005260206000200180546107de90612a09565b80601f016020809104026020016040519081016040528092919081815260200182805461080a90612a09565b80156108575780601f1061082c57610100808354040283529160200191610857565b820191906000526020600020905b81548152906001019060200180831161083a57829003601f168201915b5050505050611312565b82600960008673ffffffffffffffffffffffffffffffffffffffff1673ffffffffffffffffffffffffffffffffffffffff1681526020019081526020016000208190555081600b60008673ffffffffffffffffffffffffffffffffffffffff1673ffffffffffffffffffffffffffffffffffffffff16815260200190815260200160002090805190602001906108f8929190612264565b506001600c600082825461090c9190612c4f565b925050819055506001600a60008673ffffffffffffffffffffffffffffffffffffffff1673ffffffffffffffffffffffffffffffffffffffff16815260200190815260200160002060006101000a81548160ff0219169083151502179055507ffe281bcdb072dfbddfafb1763ee8ba9b91ba790715c617af593493fe865ac73783858460405161099e93929190612ca5565b60405180910390a150505050565b6109bd6109b76111b5565b826113bd565b6109fc576040517f08c379a00000000000000000000000000000000000000000000000000000000081526004016109f390612d55565b60405180910390fd5b610a07838383611452565b505050565b600b6020528060005260406000206000915090508054610a2b90612a09565b80601f0160208091040260200160405190810160405280929190818152602001828054610a5790612a09565b8015610aa45780601f10610a7957610100808354040283529160200191610aa4565b820191906000526020600020905b815481529060010190602001808311610a8757829003601f168201915b505050505081565b600a6020528060005260406000206000915054906101000a900460ff1681565b610ae783838360405180602001604052806000815250610d8d565b505050565b6000600960008373ffffffffffffffffffffffffffffffffffffffff1673ffffffffffffffffffffffffffffffffffffffff168152602001908152602001600020549050919050565b600080610b418361174c565b9050600073ffffffffffffffffffffffffffffffffffffffff168173ffffffffffffffffffffffffffffffffffffffff161415610bb3576040517f08c379a0000000000000000000000000000000000000000000000000000000008152600401610baa90612dc1565b60405180910390fd5b80915050919050565b60008073ffffffffffffffffffffffffffffffffffffffff168273ffffffffffffffffffffffffffffffffffffffff161415610c2d576040517f08c379a0000000000000000000000000000000000000000000000000000000008152600401610c2490612e53565b60405180910390fd5b600360008373ffffffffffffffffffffffffffffffffffffffff1673ffffffffffffffffffffffffffffffffffffffff168152602001908152602001600020549050919050565b610c7c611276565b610c866000611789565b565b6000600760009054906101000a900473ffffffffffffffffffffffffffffffffffffffff16905090565b606060018054610cc190612a09565b80601f0160208091040260200160405190810160405280929190818152602001828054610ced90612a09565b8015610d3a5780601f10610d0f57610100808354040283529160200191610d3a565b820191906000526020600020905b815481529060010190602001808311610d1d57829003601f168201915b5050505050905090565b610d56610d4f6111b5565b838361184f565b5050565b60086020528060005260406000206000915054906101000a900473ffffffffffffffffffffffffffffffffffffffff1681565b610d9e610d986111b5565b836113bd565b610ddd576040517f08c379a0000000000000000000000000000000000000000000000000000000008152600401610dd490612d55565b60405180910390fd5b610de9848484846119bc565b50505050565b6060610dfa8261116a565b6000600660008481526020019081526020016000208054610e1a90612a09565b80601f0160208091040260200160405190810160405280929190818152602001828054610e4690612a09565b8015610e935780601f10610e6857610100808354040283529160200191610e93565b820191906000526020600020905b815481529060010190602001808311610e7657829003601f168201915b505050505090506000610ea4611a18565b9050600081511415610eba578192505050610efd565b600082511115610eef578082604051602001610ed7929190612eaf565b60405160208183030381529060405292505050610efd565b610ef884611a2f565b925050505b919050565b60096020528060005260406000206000915090505481565b6000600a60008373ffffffffffffffffffffffffffffffffffffffff1673ffffffffffffffffffffffffffffffffffffffff16815260200190815260200160002060009054906101000a900460ff169050919050565b6000600560008473ffffffffffffffffffffffffffffffffffffffff1673ffffffffffffffffffffffffffffffffffffffff16815260200190815260200160002060008373ffffffffffffffffffffffffffffffffffffffff1673ffffffffffffffffffffffffffffffffffffffff16815260200190815260200160002060009054906101000a900460ff16905092915050565b61100c611276565b600073ffffffffffffffffffffffffffffffffffffffff168173ffffffffffffffffffffffffffffffffffffffff16141561107c576040517f08c379a000000000000000000000000000000000000000000000000000000000815260040161107390612f45565b60405180910390fd5b61108581611789565b50565b60007f80ac58cd000000000000000000000000000000000000000000000000000000007bffffffffffffffffffffffffffffffffffffffffffffffffffffffff1916827bffffffffffffffffffffffffffffffffffffffffffffffffffffffff1916148061115357507f5b5e139f000000000000000000000000000000000000000000000000000000007bffffffffffffffffffffffffffffffffffffffffffffffffffffffff1916827bffffffffffffffffffffffffffffffffffffffffffffffffffffffff1916145b80611163575061116282611a97565b5b9050919050565b61117381611b01565b6111b2576040517f08c379a00000000000000000000000000000000000000000000000000000000081526004016111a990612dc1565b60405180910390fd5b50565b600033905090565b816004600083815260200190815260200160002060006101000a81548173ffffffffffffffffffffffffffffffffffffffff021916908373ffffffffffffffffffffffffffffffffffffffff160217905550808273ffffffffffffffffffffffffffffffffffffffff1661123083610b35565b73ffffffffffffffffffffffffffffffffffffffff167f8c5be1e5ebec7d5bd14f71427d1e84f3dd0314c0f7b2291e5b200ac8c7c3b92560405160405180910390a45050565b61127e6111b5565b73ffffffffffffffffffffffffffffffffffffffff1661129c610c88565b73ffffffffffffffffffffffffffffffffffffffff16146112f2576040517f08c379a00000000000000000000000000000000000000000000000000000000081526004016112e990612fb1565b60405180910390fd5b565b61130e828260405180602001604052806000815250611b42565b5050565b61131b82611b01565b61135a576040517f08c379a000000000000000000000000000000000000000000000000000000000815260040161135190613043565b60405180910390fd5b80600660008481526020019081526020016000209080519060200190611381929190612264565b507ff8e1a15aba9398e019f0b49df1a4fde98ee17ae345cb5f6b5e2c27f5033e8ce7826040516113b191906127ef565b60405180910390a15050565b6000806113c983610b35565b90508073ffffffffffffffffffffffffffffffffffffffff168473ffffffffffffffffffffffffffffffffffffffff16148061140b575061140a8185610f70565b5b8061144957508373ffffffffffffffffffffffffffffffffffffffff16611431846105ad565b73ffffffffffffffffffffffffffffffffffffffff16145b91505092915050565b8273ffffffffffffffffffffffffffffffffffffffff1661147282610b35565b73ffffffffffffffffffffffffffffffffffffffff16146114c8576040517f08c379a00000000000000000000000000000000000000000000000000000000081526004016114bf906130d5565b60405180910390fd5b600073ffffffffffffffffffffffffffffffffffffffff168273ffffffffffffffffffffffffffffffffffffffff161415611538576040517f08c379a000000000000000000000000000000000000000000000000000000000815260040161152f90613167565b60405180910390fd5b6115458383836001611b9d565b8273ffffffffffffffffffffffffffffffffffffffff1661156582610b35565b73ffffffffffffffffffffffffffffffffffffffff16146115bb576040517f08c379a00000000000000000000000000000000000000000000000000000000081526004016115b2906130d5565b60405180910390fd5b6004600082815260200190815260200160002060006101000a81549073ffffffffffffffffffffffffffffffffffffffff02191690556001600360008573ffffffffffffffffffffffffffffffffffffffff1673ffffffffffffffffffffffffffffffffffffffff168152602001908152602001600020600082825403925050819055506001600360008473ffffffffffffffffffffffffffffffffffffffff1673ffffffffffffffffffffffffffffffffffffffff16815260200190815260200160002060008282540192505081905550816002600083815260200190815260200160002060006101000a81548173ffffffffffffffffffffffffffffffffffffffff021916908373ffffffffffffffffffffffffffffffffffffffff160217905550808273ffffffffffffffffffffffffffffffffffffffff168473ffffffffffffffffffffffffffffffffffffffff167fddf252ad1be2c89b69c2b068fc378daa952ba7f163c4a11628f55a4df523b3ef60405160405180910390a46117478383836001611c55565b505050565b60006002600083815260200190815260200160002060009054906101000a900473ffffffffffffffffffffffffffffffffffffffff169050919050565b6000600760009054906101000a900473ffffffffffffffffffffffffffffffffffffffff16905081600760006101000a81548173ffffffffffffffffffffffffffffffffffffffff021916908373ffffffffffffffffffffffffffffffffffffffff1602179055508173ffffffffffffffffffffffffffffffffffffffff168173ffffffffffffffffffffffffffffffffffffffff167f8be0079c531659141344cd1fd0a4f28419497f9722a3daafe3b4186f6b6457e060405160405180910390a35050565b8173ffffffffffffffffffffffffffffffffffffffff168373ffffffffffffffffffffffffffffffffffffffff1614156118be576040517f08c379a00000000000000000000000000000000000000000000000000000000081526004016118b5906131d3565b60405180910390fd5b80600560008573ffffffffffffffffffffffffffffffffffffffff1673ffffffffffffffffffffffffffffffffffffffff16815260200190815260200160002060008473ffffffffffffffffffffffffffffffffffffffff1673ffffffffffffffffffffffffffffffffffffffff16815260200190815260200160002060006101000a81548160ff0219169083151502179055508173ffffffffffffffffffffffffffffffffffffffff168373ffffffffffffffffffffffffffffffffffffffff167f17307eab39ab6107e8899845ad3d59bd9653f200f220920489ca2b5937696c31836040516119af91906123bb565b60405180910390a3505050565b6119c7848484611452565b6119d384848484611c5b565b611a12576040517f08c379a0000000000000000000000000000000000000000000000000000000008152600401611a0990613265565b60405180910390fd5b50505050565b606060405180602001604052806000815250905090565b6060611a3a8261116a565b6000611a44611a18565b90506000815111611a645760405180602001604052806000815250611a8f565b80611a6e84611df2565b604051602001611a7f929190612eaf565b6040516020818303038152906040525b915050919050565b60007f01ffc9a7000000000000000000000000000000000000000000000000000000007bffffffffffffffffffffffffffffffffffffffffffffffffffffffff1916827bffffffffffffffffffffffffffffffffffffffffffffffffffffffff1916149050919050565b60008073ffffffffffffffffffffffffffffffffffffffff16611b238361174c565b73ffffffffffffffffffffffffffffffffffffffff1614159050919050565b611b4c8383611eca565b611b596000848484611c5b565b611b98576040517f08c379a0000000000000000000000000000000000000000000000000000000008152600401611b8f90613265565b60405180910390fd5b505050565b611ba9848484846120e8565b600073ffffffffffffffffffffffffffffffffffffffff168473ffffffffffffffffffffffffffffffffffffffff161480611c105750600073ffffffffffffffffffffffffffffffffffffffff168373ffffffffffffffffffffffffffffffffffffffff16145b611c4f576040517f08c379a0000000000000000000000000000000000000000000000000000000008152600401611c46906132f7565b60405180910390fd5b50505050565b50505050565b6000611c7c8473ffffffffffffffffffffffffffffffffffffffff166120ee565b15611de5578373ffffffffffffffffffffffffffffffffffffffff1663150b7a02611ca56111b5565b8786866040518563ffffffff1660e01b8152600401611cc7949392919061336c565b602060405180830381600087803b158015611ce157600080fd5b505af1925050508015611d1257506040513d601f19601f82011682018060405250810190611d0f91906133cd565b60015b611d95573d8060008114611d42576040519150601f19603f3d011682016040523d82523d6000602084013e611d47565b606091505b50600081511415611d8d576040517f08c379a0000000000000000000000000000000000000000000000000000000008152600401611d8490613265565b60405180910390fd5b805181602001fd5b63150b7a0260e01b7bffffffffffffffffffffffffffffffffffffffffffffffffffffffff1916817bffffffffffffffffffffffffffffffffffffffffffffffffffffffff191614915050611dea565b600190505b949350505050565b606060006001611e0184612111565b01905060008167ffffffffffffffff811115611e2057611e1f6125c6565b5b6040519080825280601f01601f191660200182016040528015611e525781602001600182028036833780820191505090505b509050600082602001820190505b600115611ebf578080600190039150507f3031323334353637383961626364656600000000000000000000000000000000600a86061a8153600a8581611ea957611ea86133fa565b5b0494506000851415611eba57611ebf565b611e60565b819350505050919050565b600073ffffffffffffffffffffffffffffffffffffffff168273ffffffffffffffffffffffffffffffffffffffff161415611f3a576040517f08c379a0000000000000000000000000000000000000000000000000000000008152600401611f3190613475565b60405180910390fd5b611f4381611b01565b15611f83576040517f08c379a0000000000000000000000000000000000000000000000000000000008152600401611f7a906134e1565b60405180910390fd5b611f91600083836001611b9d565b611f9a81611b01565b15611fda576040517f08c379a0000000000000000000000000000000000000000000000000000000008152600401611fd1906134e1565b60405180910390fd5b6001600360008473ffffffffffffffffffffffffffffffffffffffff1673ffffffffffffffffffffffffffffffffffffffff16815260200190815260200160002060008282540192505081905550816002600083815260200190815260200160002060006101000a81548173ffffffffffffffffffffffffffffffffffffffff021916908373ffffffffffffffffffffffffffffffffffffffff160217905550808273ffffffffffffffffffffffffffffffffffffffff16600073ffffffffffffffffffffffffffffffffffffffff167fddf252ad1be2c89b69c2b068fc378daa952ba7f163c4a11628f55a4df523b3ef60405160405180910390a46120e4600083836001611c55565b5050565b50505050565b6000808273ffffffffffffffffffffffffffffffffffffffff163b119050919050565b600080600090507a184f03e93ff9f4daa797ed6e38ed64bf6a1f010000000000000000831061216f577a184f03e93ff9f4daa797ed6e38ed64bf6a1f0100000000000000008381612165576121646133fa565b5b0492506040810190505b6d04ee2d6d415b85acef810000000083106121ac576d04ee2d6d415b85acef810000000083816121a2576121a16133fa565b5b0492506020810190505b662386f26fc1000083106121db57662386f26fc1000083816121d1576121d06133fa565b5b0492506010810190505b6305f5e1008310612204576305f5e10083816121fa576121f96133fa565b5b0492506008810190505b612710831061222957612710838161221f5761221e6133fa565b5b0492506004810190505b6064831061224c5760648381612242576122416133fa565b5b0492506002810190505b600a831061225b576001810190505b80915050919050565b82805461227090612a09565b90600052602060002090601f01602090048101928261229257600085556122d9565b82601f106122ab57805160ff19168380011785556122d9565b828001600101855582156122d9579182015b828111156122d85782518255916020019190600101906122bd565b5b5090506122e691906122ea565b5090565b5b808211156123035760008160009055506001016122eb565b5090565b6000604051905090565b600080fd5b600080fd5b60007fffffffff0000000000000000000000000000000000000000000000000000000082169050919050565b6123508161231b565b811461235b57600080fd5b50565b60008135905061236d81612347565b92915050565b60006020828403121561238957612388612311565b5b60006123978482850161235e565b91505092915050565b60008115159050919050565b6123b5816123a0565b82525050565b60006020820190506123d060008301846123ac565b92915050565b600081519050919050565b600082825260208201905092915050565b60005b838110156124105780820151818401526020810190506123f5565b8381111561241f576000848401525b50505050565b6000601f19601f8301169050919050565b6000612441826123d6565b61244b81856123e1565b935061245b8185602086016123f2565b61246481612425565b840191505092915050565b600060208201905081810360008301526124898184612436565b905092915050565b6000819050919050565b6124a481612491565b81146124af57600080fd5b50565b6000813590506124c18161249b565b92915050565b6000602082840312156124dd576124dc612311565b5b60006124eb848285016124b2565b91505092915050565b600073ffffffffffffffffffffffffffffffffffffffff82169050919050565b600061251f826124f4565b9050919050565b61252f81612514565b82525050565b600060208201905061254a6000830184612526565b92915050565b61255981612514565b811461256457600080fd5b50565b60008135905061257681612550565b92915050565b6000806040838503121561259357612592612311565b5b60006125a185828601612567565b92505060206125b2858286016124b2565b9150509250929050565b600080fd5b600080fd5b7f4e487b7100000000000000000000000000000000000000000000000000000000600052604160045260246000fd5b6125fe82612425565b810181811067ffffffffffffffff8211171561261d5761261c6125c6565b5b80604052505050565b6000612630612307565b905061263c82826125f5565b919050565b600067ffffffffffffffff82111561265c5761265b6125c6565b5b61266582612425565b9050602081019050919050565b82818337600083830152505050565b600061269461268f84612641565b612626565b9050828152602081018484840111156126b0576126af6125c1565b5b6126bb848285612672565b509392505050565b600082601f8301126126d8576126d76125bc565b5b81356126e8848260208601612681565b91505092915050565b60008060006060848603121561270a57612709612311565b5b600061271886828701612567565b9350506020612729868287016124b2565b925050604084013567ffffffffffffffff81111561274a57612749612316565b5b612756868287016126c3565b9150509250925092565b60008060006060848603121561277957612778612311565b5b600061278786828701612567565b935050602061279886828701612567565b92505060406127a9868287016124b2565b9150509250925092565b6000602082840312156127c9576127c8612311565b5b60006127d784828501612567565b91505092915050565b6127e981612491565b82525050565b600060208201905061280460008301846127e0565b92915050565b612813816123a0565b811461281e57600080fd5b50565b6000813590506128308161280a565b92915050565b6000806040838503121561284d5761284c612311565b5b600061285b85828601612567565b925050602061286c85828601612821565b9150509250929050565b600067ffffffffffffffff821115612891576128906125c6565b5b61289a82612425565b9050602081019050919050565b60006128ba6128b584612876565b612626565b9050828152602081018484840111156128d6576128d56125c1565b5b6128e1848285612672565b509392505050565b600082601f8301126128fe576128fd6125bc565b5b813561290e8482602086016128a7565b91505092915050565b6000806000806080858703121561293157612930612311565b5b600061293f87828801612567565b945050602061295087828801612567565b9350506040612961878288016124b2565b925050606085013567ffffffffffffffff81111561298257612981612316565b5b61298e878288016128e9565b91505092959194509250565b600080604083850312156129b1576129b0612311565b5b60006129bf85828601612567565b92505060206129d085828601612567565b9150509250929050565b7f4e487b7100000000000000000000000000000000000000000000000000000000600052602260045260246000fd5b60006002820490506001821680612a2157607f821691505b60208210811415612a3557612a346129da565b5b50919050565b7f4552433732313a20617070726f76616c20746f2063757272656e74206f776e6560008201527f7200000000000000000000000000000000000000000000000000000000000000602082015250565b6000612a976021836123e1565b9150612aa282612a3b565b604082019050919050565b60006020820190508181036000830152612ac681612a8a565b9050919050565b7f4552433732313a20617070726f76652063616c6c6572206973206e6f7420746f60008201527f6b656e206f776e6572206f7220617070726f76656420666f7220616c6c000000602082015250565b6000612b29603d836123e1565b9150612b3482612acd565b604082019050919050565b60006020820190508181036000830152612b5881612b1c565b9050919050565b7f596f75206861766520616c7265616479206d696e74656420796f757220686f7560008201527f7365204e46540000000000000000000000000000000000000000000000000000602082015250565b6000612bbb6026836123e1565b9150612bc682612b5f565b604082019050919050565b60006020820190508181036000830152612bea81612bae565b9050919050565b7f4e487b7100000000000000000000000000000000000000000000000000000000600052603260045260246000fd5b7f4e487b7100000000000000000000000000000000000000000000000000000000600052601160045260246000fd5b6000612c5a82612491565b9150612c6583612491565b9250827fffffffffffffffffffffffffffffffffffffffffffffffffffffffffffffffff03821115612c9a57612c99612c20565b5b828201905092915050565b6000606082019050612cba60008301866127e0565b612cc76020830185612526565b8181036040830152612cd98184612436565b9050949350505050565b7f4552433732313a2063616c6c6572206973206e6f7420746f6b656e206f776e6560008201527f72206f7220617070726f76656400000000000000000000000000000000000000602082015250565b6000612d3f602d836123e1565b9150612d4a82612ce3565b604082019050919050565b60006020820190508181036000830152612d6e81612d32565b9050919050565b7f4552433732313a20696e76616c696420746f6b656e2049440000000000000000600082015250565b6000612dab6018836123e1565b9150612db682612d75565b602082019050919050565b60006020820190508181036000830152612dda81612d9e565b9050919050565b7f4552433732313a2061646472657373207a65726f206973206e6f74206120766160008201527f6c6964206f776e65720000000000000000000000000000000000000000000000602082015250565b6000612e3d6029836123e1565b9150612e4882612de1565b604082019050919050565b60006020820190508181036000830152612e6c81612e30565b9050919050565b600081905092915050565b6000612e89826123d6565b612e938185612e73565b9350612ea38185602086016123f2565b80840191505092915050565b6000612ebb8285612e7e565b9150612ec78284612e7e565b91508190509392505050565b7f4f776e61626c653a206e6577206f776e657220697320746865207a65726f206160008201527f6464726573730000000000000000000000000000000000000000000000000000602082015250565b6000612f2f6026836123e1565b9150612f3a82612ed3565b604082019050919050565b60006020820190508181036000830152612f5e81612f22565b9050919050565b7f4f776e61626c653a2063616c6c6572206973206e6f7420746865206f776e6572600082015250565b6000612f9b6020836123e1565b9150612fa682612f65565b602082019050919050565b60006020820190508181036000830152612fca81612f8e565b9050919050565b7f45524337323155524953746f726167653a2055524920736574206f66206e6f6e60008201527f6578697374656e7420746f6b656e000000000000000000000000000000000000602082015250565b600061302d602e836123e1565b915061303882612fd1565b604082019050919050565b6000602082019050818103600083015261305c81613020565b9050919050565b7f4552433732313a207472616e736665722066726f6d20696e636f72726563742060008201527f6f776e6572000000000000000000000000000000000000000000000000000000602082015250565b60006130bf6025836123e1565b91506130ca82613063565b604082019050919050565b600060208201905081810360008301526130ee816130b2565b9050919050565b7f4552433732313a207472616e7366657220746f20746865207a65726f2061646460008201527f7265737300000000000000000000000000000000000000000000000000000000602082015250565b60006131516024836123e1565b915061315c826130f5565b604082019050919050565b6000602082019050818103600083015261318081613144565b9050919050565b7f4552433732313a20617070726f766520746f2063616c6c657200000000000000600082015250565b60006131bd6019836123e1565b91506131c882613187565b602082019050919050565b600060208201905081810360008301526131ec816131b0565b9050919050565b7f4552433732313a207472616e7366657220746f206e6f6e20455243373231526560008201527f63656976657220696d706c656d656e7465720000000000000000000000000000602082015250565b600061324f6032836123e1565b915061325a826131f3565b604082019050919050565b6000602082019050818103600083015261327e81613242565b9050919050565b7f457272212054686973206973206e6f7420616c6c6f77656420696e20486f677760008201527f6172747300000000000000000000000000000000000000000000000000000000602082015250565b60006132e16024836123e1565b91506132ec82613285565b604082019050919050565b60006020820190508181036000830152613310816132d4565b9050919050565b600081519050919050565b600082825260208201905092915050565b600061333e82613317565b6133488185613322565b93506133588185602086016123f2565b61336181612425565b840191505092915050565b60006080820190506133816000830187612526565b61338e6020830186612526565b61339b60408301856127e0565b81810360608301526133ad8184613333565b905095945050505050565b6000815190506133c781612347565b92915050565b6000602082840312156133e3576133e2612311565b5b60006133f1848285016133b8565b91505092915050565b7f4e487b7100000000000000000000000000000000000000000000000000000000600052601260045260246000fd5b7f4552433732313a206d696e7420746f20746865207a65726f2061646472657373600082015250565b600061345f6020836123e1565b915061346a82613429565b602082019050919050565b6000602082019050818103600083015261348e81613452565b9050919050565b7f4552433732313a20746f6b656e20616c7265616479206d696e74656400000000600082015250565b60006134cb601c836123e1565b91506134d682613495565b602082019050919050565b600060208201905081810360008301526134fa816134be565b905091905056fea26469706673582212200cedd98607c80e1a2ccfe7ddfd3b57c1dd3b400a035fb93d4683aae391ae48c764736f6c63430008080033697066733a2f2f516d586a613251424b734e5739716e77396b4b66636d3235724a546f6d7741564a557258656b59464a6e567762672f526176656e636c61772e6a736f6e697066733a2f2f516d586a613251424b734e5739716e77396b4b66636d3235724a546f6d7741564a557258656b59464a6e567762672f487566666c65707566662e6a736f6e697066733a2f2f516d586a613251424b734e5739716e77396b4b66636d3235724a546f6d7741564a557258656b59464a6e567762672f4772796666696e646f722e6a736f6e697066733a2f2f516d586a613251424b734e5739716e77396b4b66636d3235724a546f6d7741564a557258656b59464a6e567762672f536c7974686572696e2e6a736f6e",
  "immutableReferences": {},
  "source": "// SPDX-License-Identifier: MIT\r\npragma solidity ^0.8.8;\r\n\r\nimport \"@openzeppelin/contracts/token/ERC721/extensions/ERC721URIStorage.sol\";\r\nimport \"@openzeppelin/contracts/access/Ownable.sol\";\r\nimport \"@openzeppelin/contracts/token/ERC721/ERC721.sol\";\r\n\r\ncontract HogwartsNFT is ERC721URIStorage, Ownable {\r\n    mapping(uint256 => address) public s_requestIdToSender; // a mapping from requestId to the address that made that request\r\n    mapping(address => uint256) public s_addressToHouse; // a mapping to map address to the house they got\r\n    mapping(address => bool) public hasMinted; // a mapping to track if an address has already minted an NFT\r\n    mapping(address => string) public s_addressToName; //a mapping to associate names with addresses\r\n\r\n\r\n    uint256 private s_tokenCounter;\r\n\r\n    string[] internal houseTokenURIs = [\r\n        \"ipfs://QmXja2QBKsNW9qnw9kKfcm25rJTomwAVJUrXekYFJnVwbg/Gryffindor.json\",\r\n        \"ipfs://QmXja2QBKsNW9qnw9kKfcm25rJTomwAVJUrXekYFJnVwbg/Hufflepuff.json\",\r\n        \"ipfs://QmXja2QBKsNW9qnw9kKfcm25rJTomwAVJUrXekYFJnVwbg/Ravenclaw.json\",\r\n        \"ipfs://QmXja2QBKsNW9qnw9kKfcm25rJTomwAVJUrXekYFJnVwbg/Slytherin.json\"\r\n    ]; // [Gryffindor, Hufflepuff, Ravenclaw, Slytherin]\r\n\r\n    event NftMinted(uint256 house, address minter, string name);\r\n\r\n    constructor() ERC721(\"Hogwarts NFT\", \"HP\") {\r\n        s_tokenCounter = 0;\r\n    }\r\n\r\n    // Read-only function to check whether a user has minted an NFT\r\n    function hasMintedNFT(address _user) public view returns (bool) {\r\n        return hasMinted[_user];\r\n    }\r\n\r\n    // Read-only function to get the house index mapped to the user\r\n    function getHouseIndex(address _user) public view returns (uint256) {\r\n        return s_addressToHouse[_user];\r\n    }\r\n\r\n    //Function to mint NFT according to the house index\r\n    function mintNFT(address recipient, uint256 house, string memory name) external onlyOwner {\r\n        require(!hasMinted[recipient], \"You have already minted your house NFT\"); // Ensure the address has not minted before\r\n\r\n        uint256 tokenId = s_tokenCounter;\r\n        _safeMint(recipient, tokenId);\r\n        _setTokenURI(tokenId, houseTokenURIs[house]);\r\n\r\n        s_addressToHouse[recipient] = house; //map house to address\r\n        s_addressToName[recipient] = name; // map name to address\r\n\r\n        s_tokenCounter += 1;\r\n        hasMinted[recipient] = true; // Mark the address as having minted an NFT\r\n\r\n        emit NftMinted(house, recipient, name);\r\n    }\r\n\r\n    //override the transfer functionality of ERC721 to make it soulbound\r\n    function _beforeTokenTransfer(address from, address to, uint256 firstTokenId, uint256 batchSize) internal virtual override {\r\n        super._beforeTokenTransfer(from, to, firstTokenId, batchSize);\r\n\r\n        require(from == address(0) || to == address(0), \"Err! This is not allowed in Hogwarts\");\r\n    }\r\n\r\n}\r\n",
  "sourcePath": "C:\\Users\\aswin\\hogwarts-dapp\\contracts\\HogwartsNFT.sol",
  "compiler": {
    "name": "solc",
    "version": "0.8.8+commit.dddeac2f.Emscripten.clang"
  },
  "schemaVersion": "3.4.13",
  "updatedAt": "2023-09-07T18:28:23.864Z",
  "networkType": "ethereum",
  "devdoc": {
    "kind": "dev",
    "methods": {
      "approve(address,uint256)": {
        "details": "See {IERC721-approve}."
      },
      "balanceOf(address)": {
        "details": "See {IERC721-balanceOf}."
      },
      "getApproved(uint256)": {
        "details": "See {IERC721-getApproved}."
      },
      "isApprovedForAll(address,address)": {
        "details": "See {IERC721-isApprovedForAll}."
      },
      "name()": {
        "details": "See {IERC721Metadata-name}."
      },
      "owner()": {
        "details": "Returns the address of the current owner."
      },
      "ownerOf(uint256)": {
        "details": "See {IERC721-ownerOf}."
      },
      "renounceOwnership()": {
        "details": "Leaves the contract without owner. It will not be possible to call `onlyOwner` functions. Can only be called by the current owner. NOTE: Renouncing ownership will leave the contract without an owner, thereby disabling any functionality that is only available to the owner."
      },
      "safeTransferFrom(address,address,uint256)": {
        "details": "See {IERC721-safeTransferFrom}."
      },
      "safeTransferFrom(address,address,uint256,bytes)": {
        "details": "See {IERC721-safeTransferFrom}."
      },
      "setApprovalForAll(address,bool)": {
        "details": "See {IERC721-setApprovalForAll}."
      },
      "supportsInterface(bytes4)": {
        "details": "See {IERC165-supportsInterface}"
      },
      "symbol()": {
        "details": "See {IERC721Metadata-symbol}."
      },
      "tokenURI(uint256)": {
        "details": "See {IERC721Metadata-tokenURI}."
      },
      "transferFrom(address,address,uint256)": {
        "details": "See {IERC721-transferFrom}."
      },
      "transferOwnership(address)": {
        "details": "Transfers ownership of the contract to a new account (`newOwner`). Can only be called by the current owner."
      }
    },
    "version": 1
  },
  "userdoc": {
    "kind": "user",
    "methods": {},
    "version": 1
  }
}