{
  "contractName": "RandomHouseAssignment",
  "abi": [
    {
      "inputs": [
        {
          "internalType": "address",
          "name": "_nftContract",
          "type": "address"
        },
        {
          "internalType": "address",
          "name": "vrfCoordinatorV2Address",
          "type": "address"
        },
        {
          "internalType": "uint64",
          "name": "subId",
          "type": "uint64"
        },
        {
          "internalType": "bytes32",
          "name": "keyHash",
          "type": "bytes32"
        },
        {
          "internalType": "uint32",
          "name": "callbackGasLimit",
          "type": "uint32"
        }
      ],
      "stateMutability": "nonpayable",
      "type": "constructor"
    },
    {
      "inputs": [
        {
          "internalType": "address",
          "name": "have",
          "type": "address"
        },
        {
          "internalType": "address",
          "name": "want",
          "type": "address"
        }
      ],
      "name": "OnlyCoordinatorCanFulfill",
      "type": "error"
    },
    {
      "anonymous": false,
      "inputs": [
        {
          "indexed": true,
          "internalType": "uint256",
          "name": "requestId",
          "type": "uint256"
        },
        {
          "indexed": false,
          "internalType": "address",
          "name": "requester",
          "type": "address"
        }
      ],
      "name": "NftRequested",
      "type": "event"
    },
    {
      "inputs": [],
      "name": "nftContract",
      "outputs": [
        {
          "internalType": "contract HogwartsNFT",
          "name": "",
          "type": "address"
        }
      ],
      "stateMutability": "view",
      "type": "function",
      "constant": true
    },
    {
      "inputs": [
        {
          "internalType": "uint256",
          "name": "requestId",
          "type": "uint256"
        },
        {
          "internalType": "uint256[]",
          "name": "randomWords",
          "type": "uint256[]"
        }
      ],
      "name": "rawFulfillRandomWords",
      "outputs": [],
      "stateMutability": "nonpayable",
      "type": "function"
    },
    {
      "inputs": [
        {
          "internalType": "string",
          "name": "name",
          "type": "string"
        }
      ],
      "name": "requestNFT",
      "outputs": [],
      "stateMutability": "nonpayable",
      "type": "function"
    }
  ],
  "bytecode": "0x60a06040523480156200001157600080fd5b506040516200103e3803806200103e833981810160405281019062000037919062000278565b838073ffffffffffffffffffffffffffffffffffffffff1660808173ffffffffffffffffffffffffffffffffffffffff1660601b8152505050846000806101000a81548173ffffffffffffffffffffffffffffffffffffffff021916908373ffffffffffffffffffffffffffffffffffffffff16021790555083600160006101000a81548173ffffffffffffffffffffffffffffffffffffffff021916908373ffffffffffffffffffffffffffffffffffffffff16021790555082600160146101000a81548167ffffffffffffffff021916908367ffffffffffffffff1602179055508160028190555080600360006101000a81548163ffffffff021916908363ffffffff160217905550505050505062000300565b600080fd5b600073ffffffffffffffffffffffffffffffffffffffff82169050919050565b60006200017f8262000152565b9050919050565b620001918162000172565b81146200019d57600080fd5b50565b600081519050620001b18162000186565b92915050565b600067ffffffffffffffff82169050919050565b620001d681620001b7565b8114620001e257600080fd5b50565b600081519050620001f681620001cb565b92915050565b6000819050919050565b6200021181620001fc565b81146200021d57600080fd5b50565b600081519050620002318162000206565b92915050565b600063ffffffff82169050919050565b620002528162000237565b81146200025e57600080fd5b50565b600081519050620002728162000247565b92915050565b600080600080600060a086880312156200029757620002966200014d565b5b6000620002a788828901620001a0565b9550506020620002ba88828901620001a0565b9450506040620002cd88828901620001e5565b9350506060620002e08882890162000220565b9250506080620002f38882890162000261565b9150509295509295909350565b60805160601c610d1a6200032460003960008181609e015260f20152610d1a6000f3fe608060405234801561001057600080fd5b50600436106100415760003560e01c80631fe543e314610046578063adc50c3414610062578063d56d229d1461007e575b600080fd5b610060600480360381019061005b9190610752565b61009c565b005b61007c60048036038101906100779190610863565b61015c565b005b610086610322565b604051610093919061092b565b60405180910390f35b7f000000000000000000000000000000000000000000000000000000000000000073ffffffffffffffffffffffffffffffffffffffff163373ffffffffffffffffffffffffffffffffffffffff161461014e57337f00000000000000000000000000000000000000000000000000000000000000006040517f1cf993f4000000000000000000000000000000000000000000000000000000008152600401610145929190610967565b60405180910390fd5b6101588282610346565b5050565b6000600160009054906101000a900473ffffffffffffffffffffffffffffffffffffffff1673ffffffffffffffffffffffffffffffffffffffff16635d3b1d30600254600160149054906101000a900467ffffffffffffffff1660038060009054906101000a900463ffffffff1660016040518663ffffffff1660e01b81526004016101ec959493929190610a6f565b602060405180830381600087803b15801561020657600080fd5b505af115801561021a573d6000803e3d6000fd5b505050506040513d601f19601f8201168201806040525081019061023e9190610ad7565b9050336004600083815260200190815260200160002060006101000a81548173ffffffffffffffffffffffffffffffffffffffff021916908373ffffffffffffffffffffffffffffffffffffffff16021790555081600560003373ffffffffffffffffffffffffffffffffffffffff1673ffffffffffffffffffffffffffffffffffffffff16815260200190815260200160002090805190602001906102e592919061050c565b50807ff873236e6cc0ecc5be1a9a35c95ee5b8d1ac4cc7bfef0cc5060391d6cc98e26b336040516103169190610b04565b60405180910390a25050565b60008054906101000a900473ffffffffffffffffffffffffffffffffffffffff1681565b60006004600084815260200190815260200160002060009054906101000a900473ffffffffffffffffffffffffffffffffffffffff1690506000600560008373ffffffffffffffffffffffffffffffffffffffff1673ffffffffffffffffffffffffffffffffffffffff16815260200190815260200160002080546103ca90610b4e565b80601f01602080910402602001604051908101604052809291908181526020018280546103f690610b4e565b80156104435780601f1061041857610100808354040283529160200191610443565b820191906000526020600020905b81548152906001019060200180831161042657829003601f168201915b50505050509050600060048460008151811061046257610461610b80565b5b60200260200101516104749190610bde565b905060008054906101000a900473ffffffffffffffffffffffffffffffffffffffff1673ffffffffffffffffffffffffffffffffffffffff16631e5769128483856040518463ffffffff1660e01b81526004016104d393929190610ca6565b600060405180830381600087803b1580156104ed57600080fd5b505af1158015610501573d6000803e3d6000fd5b505050505050505050565b82805461051890610b4e565b90600052602060002090601f01602090048101928261053a5760008555610581565b82601f1061055357805160ff1916838001178555610581565b82800160010185558215610581579182015b82811115610580578251825591602001919060010190610565565b5b50905061058e9190610592565b5090565b5b808211156105ab576000816000905550600101610593565b5090565b6000604051905090565b600080fd5b600080fd5b6000819050919050565b6105d6816105c3565b81146105e157600080fd5b50565b6000813590506105f3816105cd565b92915050565b600080fd5b6000601f19601f8301169050919050565b7f4e487b7100000000000000000000000000000000000000000000000000000000600052604160045260246000fd5b610647826105fe565b810181811067ffffffffffffffff821117156106665761066561060f565b5b80604052505050565b60006106796105af565b9050610685828261063e565b919050565b600067ffffffffffffffff8211156106a5576106a461060f565b5b602082029050602081019050919050565b600080fd5b60006106ce6106c98461068a565b61066f565b905080838252602082019050602084028301858111156106f1576106f06106b6565b5b835b8181101561071a578061070688826105e4565b8452602084019350506020810190506106f3565b5050509392505050565b600082601f830112610739576107386105f9565b5b81356107498482602086016106bb565b91505092915050565b60008060408385031215610769576107686105b9565b5b6000610777858286016105e4565b925050602083013567ffffffffffffffff811115610798576107976105be565b5b6107a485828601610724565b9150509250929050565b600080fd5b600067ffffffffffffffff8211156107ce576107cd61060f565b5b6107d7826105fe565b9050602081019050919050565b82818337600083830152505050565b6000610806610801846107b3565b61066f565b905082815260208101848484011115610822576108216107ae565b5b61082d8482856107e4565b509392505050565b600082601f83011261084a576108496105f9565b5b813561085a8482602086016107f3565b91505092915050565b600060208284031215610879576108786105b9565b5b600082013567ffffffffffffffff811115610897576108966105be565b5b6108a384828501610835565b91505092915050565b600073ffffffffffffffffffffffffffffffffffffffff82169050919050565b6000819050919050565b60006108f16108ec6108e7846108ac565b6108cc565b6108ac565b9050919050565b6000610903826108d6565b9050919050565b6000610915826108f8565b9050919050565b6109258161090a565b82525050565b6000602082019050610940600083018461091c565b92915050565b6000610951826108ac565b9050919050565b61096181610946565b82525050565b600060408201905061097c6000830185610958565b6109896020830184610958565b9392505050565b6000819050919050565b6109a381610990565b82525050565b600067ffffffffffffffff82169050919050565b6109c6816109a9565b82525050565b6000819050919050565b600061ffff82169050919050565b60006109ff6109fa6109f5846109cc565b6108cc565b6109d6565b9050919050565b610a0f816109e4565b82525050565b600063ffffffff82169050919050565b610a2e81610a15565b82525050565b6000819050919050565b6000610a59610a54610a4f84610a34565b6108cc565b610a15565b9050919050565b610a6981610a3e565b82525050565b600060a082019050610a84600083018861099a565b610a9160208301876109bd565b610a9e6040830186610a06565b610aab6060830185610a25565b610ab86080830184610a60565b9695505050505050565b600081519050610ad1816105cd565b92915050565b600060208284031215610aed57610aec6105b9565b5b6000610afb84828501610ac2565b91505092915050565b6000602082019050610b196000830184610958565b92915050565b7f4e487b7100000000000000000000000000000000000000000000000000000000600052602260045260246000fd5b60006002820490506001821680610b6657607f821691505b60208210811415610b7a57610b79610b1f565b5b50919050565b7f4e487b7100000000000000000000000000000000000000000000000000000000600052603260045260246000fd5b7f4e487b7100000000000000000000000000000000000000000000000000000000600052601260045260246000fd5b6000610be9826105c3565b9150610bf4836105c3565b925082610c0457610c03610baf565b5b828206905092915050565b610c18816105c3565b82525050565b600081519050919050565b600082825260208201905092915050565b60005b83811015610c58578082015181840152602081019050610c3d565b83811115610c67576000848401525b50505050565b6000610c7882610c1e565b610c828185610c29565b9350610c92818560208601610c3a565b610c9b816105fe565b840191505092915050565b6000606082019050610cbb6000830186610958565b610cc86020830185610c0f565b8181036040830152610cda8184610c6d565b905094935050505056fea2646970667358221220a035e88f37acc1277578f8d52cce6a51062d1c2ef5a9d7fd55a185849f3f1c7f64736f6c63430008080033",
  "immutableReferences": {
    "10": [
      {
        "length": 32,
        "start": 158
      },
      {
        "length": 32,
        "start": 242
      }
    ]
  },
  "source": "// SPDX-License-Identifier: MIT\r\npragma solidity ^0.8.8;\r\n\r\nimport \"./HogwartsNFT.sol\";\r\nimport \"@chainlink/contracts/src/v0.8/interfaces/VRFCoordinatorV2Interface.sol\";\r\nimport \"@chainlink/contracts/src/v0.8/VRFConsumerBaseV2.sol\";\r\n\r\ncontract RandomHouseAssignment is VRFConsumerBaseV2 {\r\n    HogwartsNFT public nftContract;\r\n    VRFCoordinatorV2Interface private i_vrfCoordinator;\r\n    uint64 private i_subscriptionId; // get subscription ID from vrf.chain.link\r\n    bytes32 private i_keyHash;\r\n    uint32 private i_callbackGasLimit;\r\n    mapping(uint256 => address) private s_requestIdToSender;\r\n    mapping(address => string) private s_nameToSender;\r\n\r\n    event NftRequested(uint256 indexed requestId, address requester);\r\n\r\n    constructor(\r\n        address _nftContract,\r\n        address vrfCoordinatorV2Address,\r\n        uint64 subId,\r\n        bytes32 keyHash,\r\n        uint32 callbackGasLimit\r\n    )\r\n        VRFConsumerBaseV2(vrfCoordinatorV2Address)\r\n    {\r\n        nftContract = HogwartsNFT(_nftContract);\r\n        i_vrfCoordinator = VRFCoordinatorV2Interface(vrfCoordinatorV2Address);\r\n        i_subscriptionId = subId;\r\n        i_keyHash = keyHash;\r\n        i_callbackGasLimit = callbackGasLimit;\r\n    }\r\n\r\n    function requestNFT(string memory name) public {\r\n        uint256 requestId = i_vrfCoordinator.requestRandomWords(\r\n            i_keyHash, \r\n            i_subscriptionId,\r\n            3,\r\n            i_callbackGasLimit,\r\n            1\r\n        );\r\n\r\n        s_requestIdToSender[requestId] = msg.sender;\r\n        s_nameToSender[msg.sender] = name;\r\n        emit NftRequested(requestId, msg.sender);\r\n    }\r\n\r\n    function fulfillRandomWords(uint256 requestId, uint256[] memory randomWords) internal override {\r\n        address nftOwner = s_requestIdToSender[requestId];\r\n        string memory name = s_nameToSender[nftOwner];\r\n        uint256 house = randomWords[0] % 4;\r\n        nftContract.mintNFT(nftOwner, house, name);\r\n    }\r\n}\r\n",
  "sourcePath": "C:\\Users\\aswin\\hogwarts-dapp\\contracts\\RandomHouseAssignment.sol",
  "compiler": {
    "name": "solc",
    "version": "0.8.8+commit.dddeac2f.Emscripten.clang"
  },
  "schemaVersion": "3.4.13",
  "updatedAt": "2023-09-07T18:28:23.888Z",
  "networkType": "ethereum",
  "devdoc": {
    "kind": "dev",
    "methods": {},
    "version": 1
  },
  "userdoc": {
    "kind": "user",
    "methods": {},
    "version": 1
  }
}